:020000040800F2
:10000000904E002045190008C5030008C7030008EA
:10001000CB030008CF030008D30300080000000052
:10002000000000000000000000000000D7030008EE
:10003000D903000800000000DB030008DD0300080E
:100040005B1900085B1900085B1900085B190008C0
:100050005B1900085B1900085B1900085B190008B0
:100060005B1900085B1900085B1900085B190008A0
:100070005B1900085B1900085B1900085B19000890
:100080005B1900085B1900085B1900085B19000880
:100090005B1900085B1900085B1900085B19000870
:1000A0005B1900085B1900085B1900085B19000860
:1000B0005B1900085B1900085B1900085B19000850
:1000C0005B1900085B1900085B1900085B19000840
:1000D0005B1900085B1900085B1900085B19000830
:1000E0005B1900085B1900085B190008DFF80CD0E9
:1000F00002F050FA0048004721010008904E00200D
:10010000002107E042F6E06100BF0A1EA1F10103F1
:1001100099B2FAD1021EA0F1010398B2F2D1704750
:100120000EB501F045FB00F0CAF9002211464FF46C
:10013000E13001F0B6FB6420FFF7E2FF00F040FA87
:10014000E4E0642001F071FB00F013FB70A002F00A
:1001500033FA6420FFF7D4FF012000F0D4FD4FF400
:10016000C870FFF7CDFF72A002F026FA012000232D
:100170009622FA210090764800F0FEFD072000F05C
:1001800058FE734800F038FE012000F099FF71A07E
:1001900002F012FA72A002F00FFA012003460422C4
:1001A0000A210090084600F0A7FF01200223032245
:1001B000142100900A2000F09FFF01200323022257
:1001C0001E2100900A2000F097FF01200423052241
:1001D000282100900A2000F08FFF0120052306222D
:1001E000322100900A2000F087FF012000210091B9
:1001F00032231A46CDE901101421084601F075F8A2
:10020000012000210B461422CDE9001023210846CD
:1002100001F0C4F800200121574B58A2CDE900108D
:100220003C21142001F026FA02200121564B53A252
:10023000CDE900105A21142001F01CFA03200121FD
:10024000524B4EA2CDE900107821142001F012FA91
:10025000052001214D4B4EA2CDE900100021642064
:1002600001F008FA05200421484B49A2CDE900100D
:100270001E21642001F0FEF905200621434B44A213
:10028000CDE900103C21642001F0F4F99620FA2316
:100290000022114600902E4800F0A8FB3EA002F07C
:1002A0008BF94FF4FA60FFF72BFF4FF4FA60FFF77A
:1002B00027FF012000F027FD4FF4C870FFF720FF53
:1002C000A0204FF496739622FA210090384800F04F
:1002D00034FB31A002F070F94FF4FA60FFF710FF21
:1002E0004FF4FA60FFF70CFF11A002F065F94FF42C
:1002F000C870FFF705FF00F00CFB2EA002F05CF9C0
:100300004FF4FA60FFF7FCFE00BFFEE719E70000BC
:10031000652D50617065722020496E697420737577
:10032000636365737366756C2E2E2E0D0A000000D4
:10033000652D506170657220636C65617220737504
:10034000636365737366756C2E2E2E0D0A000000B4
:10035000480000204775695F436C6561720D0A00B3
:1003600044726177696E673A426C61636B496D6193
:1003700067650D0A00000000140000205365656EDB
:1003800067657261740000001C00002024000020DA
:1003900057656C636F6D6500646973706C6179207B
:1003A0007375636365737366756C2E2E2E0D0A006C
:1003B000BC5C000865706420536C6565702E2E2E41
:1003C0000D0A0000704700BFFEE700BFFEE700BF58
:1003D000FEE700BFFEE770477047704770470000B8
:1003E0000CB50020019000906C48006840F480300B
:1003F0006A49086000BF6948006800F40030009056
:100400000198401C0190009818B90198B0F5A06FB0
:10041000F1D16248006800F4003010B10120009072
:1004200001E0002000900098012843D15C4800685A
:1004300040F010005A4908600846006820F00300A8
:1004400008600846006840F00200086053484068B1
:10045000524948600846406848600846406840F491
:10046000806048600846406820F47C104860084678
:10047000406840F4E81048600846006840F080702A
:10048000086000BF4548006800F000700028F9D0FF
:100490004248406820F003004049486008464068F0
:1004A00040F00200486000BF3C48406800F00C008B
:1004B0000828F9D10CBD10B5FFF792FF10BD10B59B
:1004C0003648006840F0010034490860084640683A
:1004D00034490840314948600846006832490840BC
:1004E0002E4908600846006820F48020086008460D
:1004F000406820F4FE0048604FF41F008860FFF75A
:10050000DAFF4FF000602949086010BD10B50021E6
:1005100000200022214B5B6803F00C0121B104296B
:1005200006D0082928D107E0214B224C236027E080
:100530001F4B204C236023E0184B5B6803F47010C2
:10054000164B5B6803F48032022303EB904022B920
:10055000194B4343174C23600DE0104B5B6803F4C9
:10056000003323B1144B4343124C236003E0104B80
:100570004343104C236003E00D4B0E4C236000BF3F
:1005800000BF064B5B68C3F303130C4CE15C094BE3
:100590001B68CB40074C236010BD000000100240D8
:1005A000002002400000FFF8FFFFF6FE08ED00E02B
:1005B00000127A000000002000093D000400002025
:1005C00008B501210C2001F055FD4FF43040ADF885
:1005D000000010208DF8030003208DF8020069460A
:1005E0004E4801F08BFA4FF41060ADF80000102077
:1005F0008DF8030003208DF802006946484801F099
:100600007DFA4FF48050ADF8000048208DF80300CB
:1006100003208DF802006946414801F06FFA02207C
:10062000ADF8000010208DF8030003208DF80200C3
:1006300069463B4801F062FA08BD00BF011EA0F107
:100640000102D0B2FAD1704770B504460120FFF71D
:10065000F4FF002524E04FF40051304801F0FDFA8A
:100660000120FFF7EAFF04F0800028B14FF40041B9
:100670002A4801F0F0FA04E04FF40041274801F065
:10068000ECFA6006040E0120FFF7D7FF4FF400518B
:10069000224801F0E0FA0120FFF7CFFF681CC5B245
:1006A000082DD8DB70BD10B504464FF480511B48AF
:1006B00001F0D1FA0120FFF7C0FF4FF48051174835
:1006C00001F0CBFA4FF48071154801F0C6FA2046CC
:1006D000FFF7BAFF4FF48051104801F0BCFA10BD8B
:1006E00010B504464FF480510C4801F0B4FA0120D3
:1006F000FFF7A3FF4FF48051084801F0AEFA4FF422
:100700008071074801F0A7FA2046FFF79DFF4FF4DC
:100710008051024801F09FFA10BD0000000C01401A
:100720000008014006E042F6E06100BF0A1EA1F1A8
:100730000101FBD1021EA0F10100F4D1704710B5F8
:100740004FF40061FA4801F086FA0A20FFF7EAFF49
:100750004FF40061F64801F080FA0A20FFF7E2FF4B
:100760004FF40061F24801F076FA0A20FFF7DAFF51
:1007700010BD10B5FFF7E3FF1E20FFF7D3FFAA203F
:10078000FFF791FF4920FFF7ABFF5520FFF7A8FFC8
:100790002020FFF7A5FF0820FFF7A2FF0920FFF7A1
:1007A0009FFF1820FFF79CFF0120FFF77CFF3F20F1
:1007B000FFF796FF0020FFF793FF3220FFF790FF2F
:1007C0002A20FFF78DFF0E20FFF78AFF2A20FFF770
:1007D00087FF0020FFF767FF5F20FFF781FF692099
:1007E000FFF77EFF0320FFF75EFF0020FFF778FF93
:1007F0005420FFF775FF0020FFF772FF4420FFF73A
:100800006FFF0520FFF74FFF4020FFF769FF1F2014
:10081000FFF766FF1F20FFF763FF2C20FFF760FF45
:100820000620FFF740FF6F20FFF75AFF1F20FFF75A
:1008300057FF1620FFF754FF2520FFF751FF082030
:10084000FFF731FF6F20FFF74BFF1F20FFF748FF37
:100850001F20FFF745FF2220FFF742FF1320FFF77D
:1008600022FF0020FFF73CFF0420FFF739FF302074
:10087000FFF719FF0220FFF733FF4120FFF713FFB7
:100880000020FFF72DFF5020FFF70DFF3F20FFF75F
:1008900027FF6020FFF707FF0220FFF721FF00205E
:1008A000FFF71EFF6120FFF7FEFE0320FFF718FF92
:1008B0002020FFF715FF0120FFF712FFE020FFF7D0
:1008C0000FFF8220FFF7EFFE1E20FFF709FF8420B5
:1008D000FFF7E9FE0020FFF703FF8620FFF7E3FEA6
:1008E0000020FFF7FDFEE320FFF7DDFE2F20FFF7DE
:1008F000F7FEE020FFF7D7FE0020FFF7F1FEE6202D
:10090000FFF7D1FE0020FFF7EBFE0420FFF7CBFE40
:1009100010BD10B50720FFF7C6FEA520FFF7E0FECB
:1009200010BD10B583A001F047FE89A001F044FE80
:100930004CF25030FFF7F6FE10BD2DE9F05F814616
:100940000C461746984686A001F036FE1020FFF7A9
:10095000AAFE00252CE0002626E00A9A3A44AA4284
:100960001ED9BD421CD308EB040101EBD172521019
:10097000B24215D904EBD4725210B24210D8A34639
:1009800004EBDB71A6EB6101C24608EBDA72521090
:10099000EB1B02FB031119F80100FFF7A1FE02E0B7
:1009A0001120FFF79DFE761CB6F5C87FD5D36D1CD0
:1009B000B5F5F07FCFD30420FFF775FE41F2883004
:1009C000FFF7B0FE1220FFF76EFE0020FFF788FE53
:1009D000FFF7A7FF0220FFF766FE0020FFF780FE6B
:1009E00041F28830FFF79EFEBDE8F09F2DE9F05FF1
:1009F00081460C461746984659A001F0DDFD1020AF
:100A0000FFF751FE00252CE0002626E00A9A3A4422
:100A1000AA421ED9BD421CD308EB040101EBD172DE
:100A20005210B24215D904EBD4725210B24210D80F
:100A3000A34604EBDB71A6EB6101C24608EBDA7258
:100A40005210EB1B02FB031119F80100FFF748FEDF
:100A500002E01120FFF744FE761CB6F5C87FD5D31F
:100A60006D1CB5F5F07FCFD30420FFF71CFE41F2DB
:100A70008830FFF757FE1220FFF715FE0020FFF722
:100A80002FFEFFF74EFF0220FFF70DFE0020FFF7BD
:100A900027FE41F28830FFF745FEBDE8F09F7CB5A8
:100AA000002636A103C9CDE900011020FFF7FBFDA8
:100AB000002416E01E20B4FBF0F100FB114010B939
:100AC0000CB1701CC6B2002507E01DF8061041EA03
:100AD0000111C8B2FFF704FE6D1CB5F5C87FF4D351
:100AE000641CB4F5F07FE5D30420FFF7DCFD41F290
:100AF0008830FFF717FE1220FFF7D5FD0020FFF723
:100B0000EFFDFFF70EFF0220FFF7CDFD0020FFF7FE
:100B1000E7FD41F28830FFF705FE7CBD7CB517A1EB
:100B200003C9CDE900011020FFF7BDFD002640E01C
:100B300000080140506C656173652062652070613A
:100B40007469656E74202E2E2E2E200D0A00000072
:100B5000627573792068202E2E2E2E0D0A0000005B
:100B6000506C656173652062652070617469656EA3
:100B700074202E2E2E2E20200D0A000000010203CC
:100B800004050601002509E0002404E01DF8050025
:100B9000FFF7A6FD641C322CF8D36D1C072DF3D390
:100BA000002403E00120FFF79BFD641C322CF9D3E5
:100BB000761CB6F5F07FE5D30420FFF774FD41F213
:100BC0008830FFF7AFFD1220FFF76DFD0020FFF723
:100BD00087FDFFF7A6FE0220FFF765FD0020FFF767
:100BE0007FFD41F28830FFF79DFD7CBD70B504208C
:100BF000FFF759FDAFF2C40001F0DEFCFFF791FEF4
:100C00001020FFF750FD002520E0002403E0002025
:100C1000FFF766FD641C642CF9D3002403E0332045
:100C2000FFF75EFD641C642CF9D3002403E022204E
:100C3000FFF756FD641C642CF9D3002403E0662002
:100C4000FFF74EFD641C642CF9D36D1CF02DDCD332
:100C5000002520E0002403E04420FFF741FD641C50
:100C6000642CF9D3002403E05520FFF739FD641C00
:100C7000642CF9D3002403E01120FFF731FD641C3C
:100C8000642CF9D3002403E01120FFF729FD641C34
:100C9000642CF9D36D1CF02DDCD30620FFF703FD87
:100CA0006F20FFF71DFD2620FFF71AFD3620FFF706
:100CB00017FD4420FFF714FD1220FFF7F4FC00207D
:100CC000FFF70EFDAFF2941001F076FCFFF729FE5E
:100CD000002504E04FF47A70FFF724FD6D1C082D09
:100CE000F8D3FFF72CFD0620FFF7DDFC6F20FFF7A0
:100CF000F7FC1F20FFF7F4FC1520FFF7F1FC15208F
:100D0000FFF7EEFC70BD2DE9F0410446AFF2DC10B8
:100D100001F052FC4FF4C8774FF4F0781020FFF741
:100D2000C2FC00260CE0002506E044EA0411C8B22B
:100D3000FFF7D6FC681C85B2BD42F6DB701C86B29C
:100D40004645F0DB0420FFF7AEFC41F28830FFF7A8
:100D5000E9FC1220FFF7A7FC0020FFF7C1FCFFF71A
:100D6000E0FD0220FFF79FFC0020FFF7B9FC2820E0
:100D7000FFF7D8FCBDE8F0812DE9F04107460C46AD
:100D800015461E46DDF818800020F949086008461F
:100D9000076004814581A0F80C800720C8822246A4
:100DA00004EBD2735B10A4EB430323B9214601EBA0
:100DB000D1735B1004E0204604EBD0735B105B1C26
:100DC000DFF8ACC3ACF8123060468582828A418A73
:100DD000E8A001F0F1FBE648C6810020E449088262
:100DE0000EB1B42E03D1E2488480C58002E0E04811
:100DF0008580C480BDE8F08110B50446DC480460FD
:100E0000E5A001F0D9FB10BD30B15A2804D0B428B8
:100E100002D0B0F5877F01D1D549C881704728B18C
:100E2000012803D0022801D0032801D1D04908822B
:100E3000704730B5CE49C8820C46238903EBD37482
:100E40006410A3EB44042CB90C46228902EBD27443
:100E5000641005E0C64C218901EBD1746410641C58
:100E6000C34D6C8230BD2DE9F04603460C46C04DA3
:100E70002D6815F80870BE4DAD889D4203DBBC4D52
:100E8000ED88A54201DABDE8F086B94DED893DB1A6
:100E90005A2D08D0B42D0DD0B5F5877F1CD114E0A4
:100EA0001846214619E0B24D2D892D1B6D1EA8B2A2
:100EB000194612E0AE4D2D89ED1A6D1EA8B2AC4D4B
:100EC0006D892D1B6D1EA9B207E02046A84D6D89C6
:100ED000ED1A6D1EA9B200E0D5E700BFA44D2D8A22
:100EE00035B1012D05D0022D09D0032D18D10CE00C
:100EF00017E09F4D2D892D1A6D1EA8B211E09C4D53
:100F00006D896D1A6D1EA9B20BE0994D2D892D1AB0
:100F10006D1EA8B2964D6D896D1A6D1EA9B200E0C6
:100F2000B1E700BF924D2D89854203DB904D6D895D
:100F30008D4200DAA7E78E4DED8A022D3DD106469F
:100F40004FEAE07900EB59794FEAE909DFF820A28E
:100F5000BAF812A001FB0A95854E366816F805C04E
:100F6000AAB906464FEAE07900EB59794FEAE90958
:100F7000A0EBC90A4FF0800949FA0AF92CEA0909DD
:100F8000DFF8ECA1DAF800A00AF8059014E00646B4
:100F90004FEAE07900EB59794FEAE909A0EBC90A79
:100FA0004FF0800949FA0AF949EA0C09DFF8C0A1B3
:100FB000DAF800A00AF8059080E06D4DED8A042D66
:100FC0003FD105464FEAE07C00EB9C7C4FEAAC0C3D
:100FD000DFF89C91B9F8129001FB09C615464FEA5B
:100FE000E27C02EB9C7C4FEAAC0CA2EB8C0C1FFA6F
:100FF0008CF205464FEAE07C00EB9C7C4FEAAC0C9F
:10100000A0EB8C0C4FEA4C094FF0C00C4CFA09FCD9
:1010100027EA0C074FEAE07C00EB9C7C4FEAAC0C23
:10102000A0EB8C0C4FEA4C094FEA821C4CFA09FCED
:101030004CEA070CDFF83891D9F8009009F806C09F
:101040003CE04B4DED8A072D03D0494DED8A102D24
:1010500034D1844600EBDC794FEA6909DFF810A14E
:10106000BAF812A001FB0A95DFF804C1DCF800C051
:101070001CF80560844600EBDC794FEA6909A0EBB7
:1010800049094FEA890A4FF0F00949FA0AF926EAB4
:10109000090600EBDC794FEA6909A0EB49094FEA40
:1010A000890A4FEA021949FA0AF949EA0609DFF8FA
:1010B000C0A0DAF800A00AF8059000BF00BFE2E681
:1010C00030B50246002112E000200AE0284C648A74
:1010D00001FB040342EA0214254D2D68EC54441C24
:1010E000A0B2234C648A8442F0DC4C1CA1B2204C98
:1010F000A48A8C42E8DC30BD2DE9F04707468846DB
:1011000091461C46DDF820A019488088B84203DBD0
:101110001748C088404504DA24A001F04DFABDE824
:10112000F087BAF1010F5DD100251CE0002613E025
:101130007819001B03D408EB0600001B00D50FE054
:1011400008EB0602121B91B27A19121B90B24A46A2
:10115000FFF789FE701C06B26000401EB042E7DC5B
:1011600000BF681C05B26000401EA842DEDC4FE0F4
:10117000744C0020776964746842797465203D205E
:1011800025642C2068656967687442797465203D20
:101190002025640D0A00000073656C656374696D39
:1011A00061676520796573200D0A00004775695FE6
:1011B000447261775F506F696E7420496E70757408
:1011C000206578636565647320746865206E6F724E
:1011D0006D616C20646973706C61792072616E67F7
:1011E000650D0A00002511E000260BE008EB060261
:1011F000521E91B27A19521E90B24A46FFF733FE40
:10120000701C06B2A642F1DB681C05B2A542EBDBFE
:1012100000BF84E72DE9F04F87B004460D4616461F
:101220001F46A0460695301B01D4301B00E0A01BD2
:101230000590781B01D4781B00E0E81B82460598D6
:10124000A0EB0A09B44202DD4FF0FF3000E00120BC
:101250000390BD4202DD4FF0FF3000E0012002901C
:101260004FF0000B00BF0BF1010B129801280ED1BB
:1012700003209BFBF0F100FB11B040B9012000906E
:101280004046DDE910230699FFF736FF09E0129882
:1012900038B9012000904046DDE910230699FFF798
:1012A0002BFFB04503D10698B84200D119E04FEAB0
:1012B00049000490CAF100010498884205DBA9EBBB
:1012C0000A09039840441FFA80F8DDE904018842C6
:1012D000C9DC0598814402990698084480B20690BA
:1012E000C1E700BF07B0BDE8F08F2DE9FE4F814692
:1012F0000F4692469846DDE90DB50C9CFE48808865
:1013000048450BDBFC48C088B84207DBFA488088B8
:10131000504503DBF848C088404501DABDE8FE8F40
:10132000BBF1010F10D13E460BE000203346524680
:101330003146CDE9004502904846FFF76BFF701C2F
:1013400086B24645F1DB27E000203B46524639464F
:10135000CDE9004502904846FFF75CFF0020434678
:101360004A463946CDE9004502904846FFF752FF0C
:101370000020434652463946CDE90045029050468A
:10138000FFF748FF0020434652464146CDE900455D
:1013900002904846FFF73EFF00BFBFE72DE9F84F38
:1013A00005460E4691469B4600244F46C9F1010A68
:1013B000D1488088A84203DBCF48C088B04204DA15
:1013C000CEA001F0F9F8BDE8F88FC5E00A98002832
:1013D00050D10120F21991B22A19009090B25A46C8
:1013E0000B9BFFF789FE0120321991B2EA19009098
:1013F00090B25A460B9BFFF77FFE0120F21991B283
:101400002A1B009090B25A460B9BFFF775FE0120F5
:10141000321991B2EA1B009090B25A460B9BFFF72B
:101420006BFE0120F21B91B22A1B009090B25A462B
:101430000B9BFFF761FE0120321B91B2EA1B00906B
:1014400090B25A460B9BFFF757FE0120F21B91B258
:101450002A19009090B25A460B9BFFF74DFE0120CF
:10146000321B91B2EA19009090B25A460B9BFFF7DB
:1014700043FE62E00A9801285FD1A0465BE00120AC
:1014800006EB080291B22A19009090B25A460B9BC3
:10149000FFF732FE0120321991B205EB08020090ED
:1014A00090B25A460B9BFFF727FE012006EB08027D
:1014B00091B22A1B009090B25A460B9BFFF71CFE7C
:1014C0000120321991B2A5EB0802009090B25A4661
:1014D0000B9BFFF711FE0120A6EB080291B22A1B1D
:1014E000009090B25A460B9BFFF706FE0120321B7C
:1014F00091B2A5EB0802009090B25A460B9BFFF701
:10150000FBFD0120A6EB080291B22A19009090B2CF
:101510005A460B9BFFF7F0FD0120321B91B205EB01
:101520000802009090B25A460B9BFFF7E5FD08F1C8
:1015300001001FFA80F8B845A1DDBAF1000F03DA07
:101540006000C01C824405E0E01B4000401D824456
:10155000781E87B2601C84B2A7423FF737AF00BF46
:1015600031E72DE9FC4F0746884692461D46DDF8D7
:101570002CB061488088B84203DB5F48C088404592
:1015800001DABDE8FC8FA988CA1701EB5272D210AC
:101590000846CB1701EB5373DB10A1EBC3030BB170
:1015A000012300E000231A44EB885A4392B20092D0
:1015B000AAF12000009A504301902968019801EB9C
:1015C0000009002651E0002440E0BBF1FF0F14D1D8
:1015D000E11704EB5171C910A4EBC1028021114144
:1015E00099F80020114029B308EB060291B23A198C
:1015F00090B20C9AFFF737FC1CE0E11704EB517135
:10160000C910A4EBC1028021114199F800201140BA
:1016100041B108EB060291B23A1990B20C9AFFF769
:1016200022FC07E008EB060291B23A1990B25A4642
:10163000FFF719FCE11704EB5171C910A4EBC101CC
:10164000072901D109F10109601C84B2A888A042D0
:10165000BBDCA888C11700EB5171C910A0EBC10118
:1016600009B109F10109701C86B2E888B042AADC10
:1016700000BF86E72DE9FC4F0746884615461C4605
:10168000DDE90BAB3E46C14620E0A08830441A4954
:101690008988884204DD3E46E08848441FFA80F984
:1016A000E08848441449C988884203DDC146A088BF
:1016B000304486B2CDE900AB15F8012B23464946EC
:1016C0003046FFF74EFFA088304486B228780028C5
:1016D000DBD1BDE8FC8F2DE9F04FADF5037D06466B
:1016E0000F4615469946DDF834B2DDF830A20024E5
:1016F000A0464FF4807119E0744C00204552523AD4
:10170000636972636C652063656E74657220706FC7
:10171000696E74206F7574206F66207363726565DF
:101720006E2061726561210D0A00000043A800F07F
:1017300010FF4FF4807103A800F00BFF43A8029044
:101740001A488088B04203DB1848C088B84203DAE0
:101750000DF5037DBDE8F08F0CE00A2095FBF0F15C
:1017600000FB1150303003A90855601C04B20A2058
:1017700095FBF0F5002DF0D10BE0601E03A9085C8D
:1017800043A901F8080008F101000FFA80F8601E73
:1017900004B2002CF1DC4B46CDE900AB39463046B3
:1017A000029AFFF767FF00BFD2E70000744C0020E9
:1017B00010B56FF0040000F022F92E4800682E49A1
:1017C000B0FBF1F02D4908700846007800EB4001AD
:1017D000C1EBC0104FF6FF7101EAC0002849088034
:1017E00010BD0146254A12784A434FF0E0235A6162
:1017F00000229A611A46126942F001021A6100BF82
:101800004FF0E022106900F001021AB100F48032BA
:10181000002AF5D04FF0E022126922F001024FF0C9
:10182000E0231A6100229A6170470146144A128827
:101830004A434FF0E0235A6100229A611A46126926
:1018400042F001021A6100BF4FF0E022106900F07F
:1018500001021AB100F48032002AF5D04FF0E022E4
:10186000126922F001024FF0E0231A6100229A610E
:10187000704700000000002000127A002C000020B9
:101880002E000020014600BF704700BF2B4A12887F
:1018900002F04002002AF9D0C2B2284B1B1D1A8068
:1018A000704770B586B004460E461546012144F2D5
:1018B000050000F0DFFB4FF40070ADF814000320CA
:1018C0008DF8160018208DF8170005A91C4800F0A7
:1018D00015F94FF48060ADF8140004208DF817005E
:1018E00005A9174800F00AF925208DF800008DF8A9
:1018F00001608DF8025001208DF80300684600F069
:1019000034F801940020ADF80800ADF80A00ADF8F5
:101910000C00ADF810000C20ADF80E0001A907482E
:1019200000F04FFC012240F22551044800F0E1FC98
:101930000121024800F0D1FC06B070BD0038014022
:101940000008014005480047FEE7FEE7FEE7FEE726
:10195000FEE7FEE7FEE7FEE7FEE7FEE7ED00000834
:1019600031490143314A1160704770B500210023AD
:101970000F22C47804B32D4C246804F4E064C4F549
:10198000E064210AC1F10403CA40447804FA03F177
:101990008478144021430901254C0678A155047828
:1019A00004F01F050124AC4005786D11AD0005F170
:1019B000E025C5F8004109E0047804F01F05012482
:1019C000AC401C4D0678761145F8264070BD1A4A89
:1019D0000A400243154B1B1F1A60704739B1134A66
:1019E000121D12680243114B1B1D1A6006E00F4ABC
:1019F000121D126882430D4B1B1D1A60704704288C
:101A000008D14FF0E021096941F004014FF0E022D4
:101A1000116107E04FF0E021096921F004014FF066
:101A2000E0221161704700000000FA050CED00E0B3
:101A300000E400E080E100E080FFFF1F10B50446F5
:101A4000CC48844208D10121042000F02DFB002164
:101A5000042000F029FB46E0C748844208D1012158
:101A6000082000F021FB0021082000F01DFB3AE0D7
:101A7000C248844208D10121102000F015FB00214A
:101A8000102000F011FB2EE0BD48844208D1012156
:101A9000202000F009FB0021202000F005FB22E0BF
:101AA000B848844208D10121402000F0FDFA00210D
:101AB000402000F0F9FA16E0B348844208D1012131
:101AC000802000F0F1FA0021802000F0EDFA0AE019
:101AD000AE48844207D10121801500F0E5FA0021CB
:101AE000A01500F0E1FA10BD10B50121084600F084
:101AF000DBFA0021012000F0D7FA10BD2DE9F041FA
:101B0000024600250026002000230024002791F82B
:101B100003C00CF00F0591F803C00CF0100CBCF1E1
:101B2000000F03D091F802C04CEA050591F800C0FF
:101B3000BCF1000F31D0146800202BE04FF0010CF5
:101B40000CFA00F3B1F800C00CEA03069E4220D163
:101B500083004FF00F0C0CFA03F7BC4305FA03FCAB
:101B60004CEA040491F803C0BCF1280F06D14FF0F1
:101B7000010C0CFA00FCC2F814C00AE091F803C092
:101B8000BCF1480F05D14FF0010C0CFA00FCC2F873
:101B900010C0401C0828D1D31460B1F800C0BCF1BB
:101BA000FF0F34DD546800202EE000F1080C4FF0E8
:101BB000010808FA0CF3B1F800C00CEA03069E42D3
:101BC00021D183004FF00F0C0CFA03F7BC4305FA48
:101BD00003FC4CEA040491F803C0BCF1280F05D1C2
:101BE00000F1080C08FA0CF8C2F8148091F803C050
:101BF000BCF1480F07D100F1080C4FF0010808FABA
:101C00000CF8C2F81080401C0828CED35460BDE800
:101C1000F0814FF6FF710180022181700421C170B3
:101C200070470246002093680B400BB1012000E092
:101C3000002070470146886880B270470246002045
:101C4000D3680B400BB1012000E000207047014633
:101C5000C86880B2704701617047416170470AB13E
:101C6000016100E041617047C16070474FF480320C
:101C70000A4382618161826182698269704702469A
:101C80000020434B18684FF68073184040EA02105A
:101C900008433F4B186070473E49C8617047F0B534
:101CA0000A46002300240021002500F00046B6F17A
:101CB000004F02D1364EF16901E0354E7168C0F334
:101CC000034583B200F44016B6F5401F08D121F059
:101CD00070612F4E766826F070662D4F7E6012E0A0
:101CE00000F48016B6F5801F06D1032606FA05F427
:101CF000A14341F0706106E0460D360103FA06F695
:101D0000B14341F0706122B1460D360103FA06F687
:101D1000314300F00046B6F1004F02D11C4EF16194
:101D200001E01B4E7160F0BD30B500228B071C0F27
:101D30000F2303FA04F2164B08338C1053F82430A7
:101D40009343134C08348D1044F8253023468C10EF
:101D500053F824308C07240F00FA04F423430C4C6E
:101D600008348D1044F8253030BD0A49DC31086054
:101D70007047000000080140000C014000100140C5
:101D80000014014000180140001C014000200140E7
:101D90000000014000002042DF48006840F00100E0
:101DA000DD49086008464068DC490840DA49486077
:101DB00008460068DA490840D749086008460068C4
:101DC00020F4802008600846406820F4FE00486047
:101DD0004FF41F0088607047CF49096821F48031B3
:101DE000CD4A11601146096821F480211160B0F5D7
:101DF000803F03D0B0F5802F0ED106E0C6490968B8
:101E000041F48031C44A116007E0C349096841F4D4
:101E1000A021C14A116000E000BF00BF704710B5AB
:101E200001460022002300204A11012A02D1BA4CA7
:101E3000236806E0022A02D1B74C236A01E0B64CBF
:101E4000636A01F01F02012494401C400CB1012080
:101E500000E0002010BD38B50020009000240025CF
:101E600000BF3120FFF7DBFF05460098401C0090C3
:101E70000098B0F5A06F01D0002DF2D03120FFF70F
:101E8000CEFF08B1012400E00024204638BD014601
:101E90000020A14A106820F0F80040EAC10010605C
:101EA0007047A04908607047024600209A4B586866
:101EB00020F47C1042EA01031843974B58607047A6
:101EC00098490866704701460020934A506820F000
:101ED00003000843506070478F48406800F00C00D2
:101EE0007047014600208C4A506820F0F0000843FB
:101EF0005060704701460020874A506820F4E06037
:101F000008435060704701460020834A506820F41F
:101F1000605040EAC1005060704729B17E4A527A51
:101F200002437D4B5A7204E07B4A527A82437A4BD9
:101F30005A7270477B49D8310860704701460020CB
:101F4000754A506820F440400843506070470021B3
:101F5000714A20321170704A82F82010012802D094
:101F600004280AD104E001216B4A2032117005E0F7
:101F70000521694A2032117000E000BF00BF7047A0
:101F80006949086070476449096A0143624A1162FD
:101F90007047654944390860704730B50021002218
:101FA000002400235C4D6D6805F00C0121B104296B
:101FB00005D0082923D105E05C4D056022E05B4D8A
:101FC00005601FE0544D6D6805F47012524D6D6848
:101FD00005F48034022505EB92421CB9544D55435B
:101FE00005600BE04C4D6D6805F400351DB1504D9A
:101FF0005543056002E04D4D5543056002E04B4DF1
:10200000056000BF00BF444D6D6805F0F00109098F
:10201000484D6B5C0568DD4045603F4D6D6805F4DB
:10202000E061090A434D6B5C4568DD4085603A4DCF
:102030006D6805F46051C90A3E4D6B5C4568DD4032
:10204000C560354D6D6805F44041890B3A4D6B5CB8
:10205000C568B5FBF3F5056130BD29B12E4A52695B
:1020600002432D4B5A6104E02B4A526982432A4BAA
:102070005A61704729B1284A92690243264B9A61F6
:1020800004E0254A92698243234B9A61704729B143
:10209000214AD2690243204BDA6104E01E4AD26928
:1020A00082431D4BDA61704729B11B4AD268024353
:1020B000194BDA6004E0184AD2688243164BDA60A2
:1020C000704729B1144A12690243134B1A6104E0A4
:1020D000114A12698243104B1A6170471249403904
:1020E000086070470F49C86470470B49C871704752
:1020F0000948406A40F080700749486270470146CD
:102100000020054A92680A400AB1012000E0002040
:102110007047014988727047001002400000FFF8C4
:10212000FFFFF6FE000042428004424200127A00A5
:1021300000093D00340000204400002010B5044692
:10214000FB48844209D101218803FFF7ADFF00213C
:102150004FF48040FFF7A8FF32E0F648844209D1EF
:1021600001214804FFF7ADFF00214FF40030FFF7D5
:10217000A8FF25E0F048844209D101218804FFF737
:10218000A0FF00214FF48020FFF79BFF18E0EB48F1
:10219000844209D10121C804FFF793FF00214FF4C5
:1021A0000020FFF78EFF0BE0E548844208D10121B3
:1021B0000805FFF786FF00214FF48010FFF781FF2D
:1021C00010BD2DE9F04786B005460E460024A24614
:1021D00000BFA1460027B08900B100BF2F462C8A5E
:1021E0004CF6FF700440F08804432C82AC894EF614
:1021F000F3100440B08831890843718908430443CF
:10220000AC81AC8A4FF6FF400440B0890443AC82F5
:1022100001A8FFF7C2FEC648874202D1DDF810A030
:1022200001E0DDF80CA0A88900F4004040B10AEB01
:10223000CA0000EB0A1031684900B0FBF1F807E072
:102240000AEBCA0000EB0A1031688900B0FBF1F814
:102250006420B8FBF0F004012009642101FB10891F
:10226000A88900F4004040B1322000EBC900B0FB67
:10227000F1F000F00700044308E0322000EB091001
:102280006421B0FBF1F000F00F0004432C8106B094
:10229000BDE8F0874FF41651016000218180C180B4
:1022A00001810C21418100218181704710B50246D6
:1022B0000020108A4FF2FF0318400B884C882343FC
:1022C0008C882343CC8823431843108210BD0021FF
:1022D000018041808180C180704721B1828942F4B0
:1022E0000052828104E082894DF6FF731A40828198
:1022F0007047F0B50346002400260025002040F674
:102300006A17B94200D100BF1846C1F3421401F068
:102310001F06012707FA06F5012C01D10C3004E055
:10232000022C01D1103000E014301AB107682F439D
:10233000076002E00768AF430760F0BD1AB1838A07
:102340000B43838202E0838A8B4383827047028A35
:102350004FF6F0731A400282028A0A4302827047E3
:1023600082894FF2FF731A40828182890A438281F7
:10237000704721B1828942F00202828104E08289A1
:102380004FF6FD731A4082817047028A4FF6DF7361
:102390001A400282028A0A430282704721B1028AED
:1023A00042F48042028204E0028A4BF6FF731A4034
:1023B00002827047C1F30802828070470146888814
:1023C000C0F308007047818941F0010181817047A5
:1023D000028BD2B20283028B42EA0122028370474F
:1023E000028B02F47F420283028B0A43028370470E
:1023F00021B1828A42F02002828204E0828A4FF672
:10240000DF731A408282704721B1828A42F0100243
:10241000828204E0828A4FF6EF731A40828270470C
:1024200021B1828A42F00802828204E0828A4FF659
:10243000F7731A408282704721B1828942F40042C8
:10244000828103E08289C2F30E028281704721B14A
:10245000828A42F40062828204E0828A4FF2FF7331
:102460001A4082827047828A4FF6FB731A4082823A
:10247000828A0A438282704721B1828A42F0020234
:10248000828204E0828A4FF6FD731A40828270478E
:1024900002460020B1F5007F00D100BF13880B4039
:1024A0000BB1012000E00020704701F40072B2F58A
:1024B000007F00D100BFCA430280704770B502465A
:1024C000002400230025002040F66A16B14200D106
:1024D00000BFC1F3421501F01F03012606FA03F302
:1024E000012D02D19689334006E0022D02D1168AD1
:1024F000334001E0968A33400C12012606FA04F4B8
:102500001688344013B10CB1012000E0002070BDEA
:1025100010B50022002340F66A14A14200D100BF8A
:102520000A1201249440A3B2DC43048010BD0000D1
:10253000003801400044004000480040004C00408A
:1025400000500040D2B201E000F8012B491EFBD23E
:1025500070470022F6E710B513460A4604461946AE
:10256000FFF7F0FF204610BD30B50B4601460020B6
:102570002022012409E021FA02F59D4205D303FA45
:1025800002F5491B04FA02F52844151EA2F10102C6
:10259000F1DC30BD064C074D06E0E06840F0010379
:1025A00094E8070098471034AC42F6D3FDF7A2FD3B
:1025B0007CBA00089CBA00080FB4054B10B503A9FB
:1025C000044A029800F018F810BC5DF814FB0000F3
:1025D0008B1800083000002002E008C8121F08C154
:1025E000002AFAD170477047002001E001C1121F94
:1025F000002AFBD1704700002DE9FF4F89B09B46B0
:102600000446002506E025280BD05A460B99904732
:10261000641C6D1C20780028F5D10DB02846BDE85B
:10262000F08F0027B8460122474900E0074314F81D
:10263000013F203B02FA03F00842F7D120782E2810
:1026400019D114F8010F47F004072A280ED06FF0B3
:102650002F022078A0F1300109290CD808EB88015D
:1026600002EB410100EB0108641CF2E70A98641CCC
:1026700050F8048B0A9020780028CED0642808D027
:10268000692806D075281ED05A460B9990476D1CB4
:1026900058E00A994FF00A0901C90A91002802DAA4
:1026A00040422D2102E0390504D52B218DF8201060
:1026B000012103E0F90704D02021F7E78A4608AE9C
:1026C0000DE00021FAE70A994FF00A0901C90A91C1
:1026D000F7E74946FFF748FF303106F8011D0028AB
:1026E000F7D1ADEB060000F12009780701D44FF0D7
:1026F0000108C84502DDA8EB090000E00020804683
:10270000002706E008A85A46C05D0B9990476D1C4B
:102710007F1C5745F6DB04E030205A460B99904762
:102720006D1CB8F10001A8F10108F5DC05E016F810
:10273000010B5A460B9990476D1CB9F10001A9F1A4
:102740000109F4DC641C65E70928010000000000B1
:102750000000000000000000000000000000000079
:1027600000000000000000000000000000000C005D
:102770000C000C000C000C000C000C000C00000005
:102780000C0000000000000000000000000000003D
:102790001DC01DC0088008800880000000000000E7
:1027A00000000000000000000000000000000D809C
:1027B0000D800D800D803FC01B003FC01B001B0023
:1027C0001B001B00000000000000000004001F8030
:1027D0003180318038001E000F000380318031804D
:1027E0003F0004000400000000000000000018008A
:1027F0002400240018C007801E00318002400240DF
:102800000180000000000000000000000000000047
:102810000F001800180018000C001D80370033004E
:102820001D8000000000000000000000000000000B
:102830000700070002000200020000000000000084
:102840000000000000000000000000000000030085
:10285000030006000E000C000C000C000C000E0023
:102860000600030003000000000000000000180044
:1028700018000C0006000600060006000600060010
:102880000C001C0018000000000000000000060002
:1028900006003FC03FC00F001F80198000000000ED
:1028A0000000000000000000000000000000000028
:1028B00000000400040004003F8004000400040041
:1028C0000000000000000000000000000000000008
:1028D00000000000000000000000000000000600F2
:1028E00004000C00080008000000000000000000C8
:1028F00000000000000000003F8000000000000019
:1029000000000000000000000000000000000000C7
:1029100000000000000000000000000000000C00AB
:102920000C000000000000000000000000C000C01B
:10293000018001800300030006000C000C00180059
:1029400018003000300000000000000000000E0001
:102950001B003180318031803180318031801B001B
:102960000E00000000000000000000000000060053
:102970003E000600060006000600060006000600EF
:102980003FC00000000000000000000000000F0039
:10299000198031803180030006000C0018003000DF
:1029A0003F800000000000000000000000003F0029
:1029B0006180018003001F0003800180018061802D
:1029C0003F000000000000000000000000000700C1
:1029D00007000F000B001B00130033003F800300B3
:1029E0000F800000000000000000000000001F80B9
:1029F0001800180018001F0011800180018021803C
:102A00001F00000000000000000000000000078020
:102A10001C00180030003700398031803180198067
:102A20000F000000000000000000000000007F0018
:102A30004300030006000600060006000C000C0020
:102A40000C000000000000000000000000001F005B
:102A50003180318031801F00318031803180318080
:102A60001F000000000000000000000000001E0029
:102A700033003180318033801D80018003000700E6
:102A80003C0000000000000000000000000000000A
:102A9000000000000C000C000000000000000C0012
:102AA0000C0000000000000000000000000000001A
:102AB000000000000300030000000000000006000A
:102AC00004000800080000000000000000000000F2
:102AD00000C0030004001800600018000400030098
:102AE00000C0000000000000000000000000000026
:102AF0000000000000007FC000007FC00000000058
:102B000000000000000000000000000000000000C5
:102B1000600018000400030000C003000400180057
:102B20006000000000000000000000000000000045
:102B30001F0031803180018007000C000C00000074
:102B40000C000000000000000000000000000E006B
:102B50001100210021002700290029002700200062
:102B600011000E0000000000000000000000000046
:102B70003F000F000900198019801F8030C030C04D
:102B800079E00000000000000000000000000000EC
:102B90007F003180318031803F0031803180318051
:102BA0007F000000000000000000000000000000A6
:102BB0001F4030C0604060006000600060403080B6
:102BC0001F000000000000000000000000000000E6
:102BD0007F00318030C030C030C030C030C0318064
:102BE0007F00000000000000000000000000000066
:102BF0007F803080308032003E0032003080308074
:102C00007F800000000000000000000000000000C5
:102C10007FC03040304032003E0032003000300093
:102C20007C00000000000000000000000000000028
:102C30001E80318060806000600067C061803180EC
:102C40001F00000000000000000000000000000065
:102C50007BC03180318031803F8031803180318054
:102C60007BC0000000000000000000000000000029
:102C70003FC006000600060006000600060006002B
:102C80003FC0000000000000000000000000000045
:102C90001FC0030003000300030063006300630020
:102CA0003E000000000000000000000000000000E6
:102CB0007BC03180330036003C003E003300318061
:102CC00079C00000000000000000000000000000CB
:102CD0007E0018001800180018001840184018400E
:102CE0007FC00000000000000000000000000000A5
:102CF000E0E060C071C07BC06AC06EC064C060C0EC
:102D0000FBE00000000000000000000000000000E8
:102D100073C0318039803D80358037803380318089
:102D200079800000000000000000000000000000AA
:102D30001F00318060C060C060C060C060C0318072
:102D40001F00000000000000000000000000000064
:102D50007F0031803180318031803F003000300091
:102D60007E000000000000000000000000000000E5
:102D70001F00318060C060C060C060C060C0318032
:102D80001F000CC01F8000000000000000000000B9
:102D90007F003180318031803E00330031803180CE
:102DA0007CE00000000000000000000000000000C7
:102DB0001F803180318038001F00038031803180D6
:102DC0003F000000000000000000000000000000C4
:102DD0007F804C804C804C800C000C000C000C0060
:102DE0003F000000000000000000000000000000A4
:102DF0007BC03180318031803180318031803180C1
:102E00001F000000000000000000000000000000A3
:102E10007BC0318031801B001B001B000A000E00AC
:102E20000E00000000000000000000000000000094
:102E3000FBE060C064C06EC06EC02A803B803B80F7
:102E400031800000000000000000000000000000D1
:102E50007BC031801B000E000E000E001B00318075
:102E60007BC0000000000000000000000000000027
:102E700079E030C019800F00060006000600060049
:102E80001F800000000000000000000000000000A3
:102E90003F8021802300060004000C001880308051
:102EA0003F800000000000000000000000000780DC
:102EB00006000600060006000600060006000600E2
:102EC000060006000780000000000000300030000F
:102ED000180018000C000C0006000300030001801D
:102EE000018000C000C000000000000000001E00C3
:102EF00006000600060006000600060006000600A2
:102F0000060006001E0000000000000004000A0089
:102F10000A00110020802080000000000000000056
:102F200000000000000000000000000000000000A1
:102F30000000000000000000000000000000000091
:102F400000000000000000000000FFE00800040096
:102F5000020000000000000000000000000000006F
:102F60000000000000000000000000000000000061
:102F7000000000001F00018001801F80318033802D
:102F80001DC00000000000000000000000007000F4
:102F9000300030003700398030C030C030C0398058
:102FA00077000000000000000000000000000000AA
:102FB000000000001E8031806080600060803180F1
:102FC0001F0000000000000000000000000003805F
:102FD000018001801D803380618061806180338049
:102FE0001DC0000000000000000000000000000004
:102FF000000000001F00318060C07FC0600030C052
:103000001F8000000000000000000000000007E03A
:103010000C000C003F800C000C000C000C000C009D
:103020003F800000000000000000000000000000E1
:10303000000000001DC033806180618061803380AA
:103040001D80018001801F00000000000000700052
:10305000300030003700398031803180318031805C
:103060007BC000000000000000000000000006001F
:10307000060000001E00060006000600060006000E
:103080003FC000000000000000000000000006003B
:10309000060000003F0003000300030003000300DC
:1030A0000300030003003E00000000000000700069
:1030B00030003000378036003C003C0036003300E2
:1030C00077C00000000000000000000000001E00AB
:1030D00006000600060006000600060006000600C0
:1030E0003FC00000000000000000000000000000E1
:1030F000000000007F8036C036C036C036C036C003
:1031000076E0000000000000000000000000000069
:1031100000000000770039803180318031803180BB
:103120007BC0000000000000000000000000000064
:10313000000000001F00318060C060C060C03180AE
:103140001F00000000000000000000000000000060
:10315000000000007700398030C030C030C03980B6
:103160003700300030007C0000000000000000004C
:10317000000000001DC03380618061806180338069
:103180001D800180018007C00000000000000000D9
:10319000000000007B801CC01800180018001800F8
:1031A0007F000000000000000000000000000000A0
:1031B000000000001F8031803C001F000380318030
:1031C0003F000000000000000000000000001800A8
:1031D000180018007F001800180018001800188048
:1031E0000F000000000000000000000000000000D0
:1031F0000000000073803180318031803180338065
:103200001DC00000000000000000000000000000E1
:10321000000000007BC0318031801B001B000E00CD
:103220000E00000000000000000000000000000090
:1032300000000000F1E060C064C06EC03B803B80D5
:1032400031800000000000000000000000000000CD
:10325000000000007BC01B000E000E000E001B00D3
:103260007BC0000000000000000000000000000023
:103270000000000079E030C0198019800B000F00B9
:10328000060006000C003E000000000000000000E8
:10329000000000003F80218003000E0018003080F5
:1032A0003F80000000000000000000000000060059
:1032B0000C000C000C000C000C0018000C000C00A2
:1032C0000C000C00060000000000000000000600DA
:1032D00006000600060006000600060006000600BE
:1032E00006000600060000000000000000000C00C0
:1032F00006000600060006000600030006000600A1
:10330000060006000C0000000000000000000000A5
:1033100000000000000018002480030000000000EE
:10332000000000000000000000000000000000009D
:10333000000000000000000000000000000000008D
:10334000000000000000000000000000000000007D
:10335000000000000000070007000700070007004A
:10336000070007000200020000000000070007003D
:10337000000000000000000000000000000000004D
:103380001CE01CE01CE00840084008400000000071
:10339000000000000000000000000000000000002D
:1033A000000000000CC00CC00CC00CC00CC03FF0F2
:1033B0003FF00CC00CC03FF03FF00CC00CC00CC084
:1033C0000CC00CC00000000000000000030003005F
:1033D00007E00FE0186018001F000FC000E0186041
:1033E00018601FC01F8003000300030000000000DE
:1033F0000000000000001C002200220022001C60CF
:1034000001E00F803C0031C002200220022001C0F8
:1034100000000000000000000000000000000000AC
:10342000000003E00FE00C000C0006000F301FF05E
:1034300019E018C01FF007B00000000000000000F5
:1034400000000000000000000380038003800100F2
:10345000010001000000000000000000000000006A
:10346000000000000000000000000000000000C09C
:1034700000C00180018001800300030003000300FD
:103480000300030001800180018000C000C0000033
:103490000000000000000C000C0006000600060002
:1034A00003000300030003000300030006000600FE
:1034B00006000C000C0000000000000000000300EB
:1034C000030003001B601FE0078007800FC00CC0D3
:1034D00000000000000000000000000000000000EC
:1034E00000000000000000000000030003000300D3
:1034F00003003FF03FF0030003000300030000005F
:1035000000000000000000000000000000000000BB
:1035100000000000000000000000000000000000AB
:103520000000038003000300060006000400000002
:10353000000000000000000000000000000000008B
:1035400000003FE03FE0000000000000000000003D
:10355000000000000000000000000000000000006B
:10356000000000000000000000000000000000005B
:1035700000000380038003800000000000000000C2
:10358000000000000060006000C000C000C00180BA
:10359000018003000300060006000C000C000C0074
:1035A00018001800000000000000000000000F805C
:1035B0001FC018C0306030603060306030603060F4
:1035C000306018C01FC00F80000000000000000025
:1035D00000000000000003001F001F0003000300A4
:1035E0000300030003000300030003001FE01FE0CB
:1035F00000000000000000000000000000000F803C
:103600001FC038E03060006000C001800300060089
:103610000C0018003FE03FE0000000000000000048
:103620000000000000000F803FC030E0006000E0BC
:1036300007C007C000E00060006060E07FC03F801E
:10364000000000000000000000000000000001C0B9
:1036500003C003C006C00CC00CC018C030C03FE09F
:103660003FE000C003E003E00000000000000000B5
:103670000000000000001FC01FC0180018001F80BD
:103680001FC018E000600060006030E03FC01F8095
:10369000000000000000000000000000000003E047
:1036A0000FE01E001800380037803FC038E030605F
:1036B000306018E01FC0078000000000000000001C
:1036C0000000000000003FE03FE03060006000C00C
:1036D00000C000C0018001800180030003000300DE
:1036E00000000000000000000000000000000F804B
:1036F0001FC038E0306038E01FC01FC038E03060C5
:10370000306038E01FC00F800000000000000000A3
:103710000000000000000F001FC038C030603060A3
:1037200038E01FE00F6000E000C003C03F803E00B3
:103730000000000000000000000000000000000089
:1037400000000000000003800380038000000000F0
:1037500000000380038003800000000000000000E0
:10376000000000000000000000000000000001C098
:1037700001C001C00000000000000380030006003B
:10378000060004000000000000000000000000002F
:103790000000003000F003C007001C0078001C008F
:1037A000070003C000F0003000000000000000002F
:1037B00000000000000000000000000000007FF09A
:1037C0007FF0000000007FF07FF0000000000000AC
:1037D00000000000000000000000000000000000E9
:1037E000000030003C000F00038000E0007800E0A3
:1037F00003800F003C0030000000000000000000CB
:1038000000000000000000000F801FC0186018605A
:10381000006001C0038003000000000007000700F3
:103820000000000000000000000000000000038015
:103830000C8008401040104011C01240124012404D
:1038400011C01000080008400780000000000000C0
:1038500000000000000000001F801F80038006C0E1
:1038600006C00CC00C601FE01FE03030787878781C
:103870000000000000000000000000000000000048
:103880003F803FC01860186018E01FC01FE018702C
:10389000183018303FF03FE000000000000000004A
:1038A000000000000000000007B00FF01C7038306E
:1038B000300030003000300038301C700FE007C09E
:1038C00000000000000000000000000000000000F8
:1038D0007F807FC030E0307030303030303030307A
:1038E000307030E07FC07F800000000000000000EA
:1038F00000000000000000003FF03FF018301830DA
:1039000019801F801F801980183018303FF03FF059
:1039100000000000000000000000000000000000A7
:103920003FF03FF01830183019801F801F80198039
:10393000180018003F003F000000000000000000D9
:10394000000000000000000007B01FF018703030C9
:103950003000300031F831F8303018301FF007C037
:103960000000000000000000000000000000000057
:103970003CF03CF01860186018601FE01FE0186011
:10398000186018603CF03CF00000000000000000EF
:1039900000000000000000001FE01FE00300030023
:1039A0000300030003000300030003001FE01FE007
:1039B0000000000000000000000000000000000007
:1039C00003F803F800600060006000603060306061
:1039D000306030E03FC00F800000000000000000B9
:1039E00000000000000000003EF83EF818E01980DA
:1039F0001B001F001D8018C018C018603E783E389C
:103A000000000000000000000000000000000000B6
:103A10003F003F000C000C000C000C000C000C30B0
:103A20000C300C303FF03FF00000000000000000C0
:103A300000000000000000007878787838703CF0D2
:103A400034B037B037B03330333030307CF87CF8B6
:103A50000000000000000000000000000000000066
:103A600039F03DF01C601E601E601B601B6019E099
:103A700019E018E03EE03E60000000000000000099
:103A8000000000000000000007800FC01CE038703C
:103A9000303030303030303038701CE00FC00780AC
:103AA0000000000000000000000000000000000016
:103AB0003FC03FE018701830183018701FE01FC06A
:103AC000180018003F003F00000000000000000048
:103AD000000000000000000007800FC01CE03870EC
:103AE000303030303030303038701CE00FC007805C
:103AF00007B00FF00CE00000000000000000000024
:103B00003FC03FE01870183018701FE01FC018E069
:103B1000186018703E383E180000000000000000D9
:103B200000000000000000000FB01FF038703030BF
:103B300038001F8007E00070303038703FE037C039
:103B40000000000000000000000000000000000075
:103B50003FF03FF0333033303330030003000300D5
:103B6000030003000FC00FC00000000000000000B1
:103B700000000000000000003CF03CF018601860FD
:103B8000186018601860186018601CE00FC007808B
:103B90000000000000000000000000000000000025
:103BA00078F078F03060306018C018C00D800D805B
:103BB0000D80070007000700000000000000000063
:103BC00000000000000000007C7C7C7C30183398F2
:103BD0003398339836D816D01C701C701C7018306F
:103BE00000000000000000000000000000000000D5
:103BF00078F078F0306018C00D80070007000D8065
:103C000018C0306078F078F000000000000000007C
:103C100000000000000000003CF03CF018600CC008
:103C20000780078003000300030003000FC00FC0DC
:103C30000000000000000000000000000000000084
:103C40001FE01FE0186018C0018003000300060099
:103C50000C6018601FE01FE0000000000000000082
:103C600000000000000003C003C0030003000300C5
:103C7000030003000300030003000300030003002C
:103C8000030003C003C0000000000000180018007B
:103C90000C000C000C00060006000300030001806D
:103CA000018000C000C000C0006000600000000093
:103CB0000000000000000F000F00030003000300DD
:103CC00003000300030003000300030003000300DC
:103CD00003000F000F0000000000000000000200C1
:103CE00007000D8018C03060202000000000000098
:103CF00000000000000000000000000000000000C4
:103D000000000000000000000000000000000000B3
:103D100000000000000000000000000000000000A3
:103D20000000000000000000FFFCFFFC0000040099
:103D30000300008000000000000000000000000000
:103D40000000000000000000000000000000000073
:103D500000000000000000000000000000000FC094
:103D60001FE000600FE01FE0386030E03FF01F70A0
:103D700000000000000000000000000000007000D3
:103D800070003000300037803FE038603030303035
:103D9000303038607FE077800000000000000000D5
:103DA000000000000000000000000000000007B05C
:103DB0001FF0183030303000300038301FF00FC0A6
:103DC0000000000000000000000000000000007083
:103DD00000700030003007B01FF018703030303005
:103DE000303038701FF807B80000000000000000F5
:103DF000000000000000000000000000000007803C
:103E00001FE018603FF03FF0300018301FF007C08F
:103E1000000000000000000000000000000003F0AF
:103E200007F0060006001FE01FE00600060006007F
:103E3000060006001FE01FE0000000000000000078
:103E4000000000000000000000000000000007B8B3
:103E50001FF8187030303030303018701FF007B055
:103E6000003000700FE00FC00000000000003800BC
:103E70003800180018001BC01FE01C601860186094
:103E8000186018603CF03CF00000000000000000EA
:103E900000000000000003000300000000001F00FD
:103EA0001F00030003000300030003001FE01FE0E6
:103EB00000000000000000000000000000000300FF
:103EC0000300000000001FC01FC000C000C000C0F1
:103ED00000C000C000C000C000C001C03F803F0063
:103EE00000000000000038003800180018001BE037
:103EF0001BE01B001E001E001B00198039F039F06A
:103F000000000000000000000000000000001F0092
:103F10001F0003000300030003000300030003006D
:103F2000030003001FE01FE000000000000000008D
:103F300000000000000000000000000000007EE023
:103F40007FF0333033303330333033307BB87BB8AD
:103F50000000000000000000000000000000000061
:103F60000000000000003BC03FE01C6018601860CB
:103F7000186018603CF03CF00000000000000000F9
:103F800000000000000000000000000000000780AA
:103F90001FE0186030303030303018601FE007808C
:103FA0000000000000000000000000000000000011
:103FB00000000000000077807FE038603030303053
:103FC000303038603FE03780300030007C007C00CB
:103FD000000000000000000000000000000007B822
:103FE0001FF8187030303030303018701FF007B0C4
:103FF0000030003000F800F8000000000000000071
:104000000000000000003CE03DF00F300E000C000E
:104010000C000C003FC03FC000000000000000008A
:10402000000000000000000000000000000007E0A9
:104030001FE018601E000FC001E018601FE01F8025
:104040000000000000000000000000000000000070
:104050000C000C000C003FE03FE00C000C000C00DA
:104060000C000C300FF007C0000000000000000042
:10407000000000000000000000000000000038E028
:1040800038E0186018601860186018E01FF00F70B2
:104090000000000000000000000000000000000020
:1040A00000000000000078F078F0306018C018C000
:1040B0000D800D80070007000000000000000000D8
:1040C000000000000000000000000000000078F088
:1040D00078F03260326037E01DC01DC018C018C0D3
:1040E00000000000000000000000000000000000D0
:1040F0000000000000003CF03CF00CC00780030012
:1041000007800CC03CF03CF0000000000000000004
:10411000000000000000000000000000000078F037
:1041200078F0306018C018C00D800F8007000600BE
:1041300006000C007F007F0000000000000000006F
:104140000000000000001FE01FE018C00180030015
:1041500006000C601FE01FE00000000000000000EF
:1041600000000000000001C003C0030003000300C2
:104170000300030007000E00070003000300030014
:10418000030003C001C000000000000000000300A5
:104190000300030003000300030003000300030007
:1041A00003000300030003000300030003000000FA
:1041B0000000000000001C001E00060006000600B3
:1041C0000600060007000380070006000600060040
:1041D00006001E001C00000000000000000000009F
:1041E00000000000000000000E003F3033F001E04E
:1041F00000000000000000000000000000000000BF
:1042000000000000000000000000000000000000AE
:10421000000000000000000000000000000000009E
:10422000000000000000000000000000000000008E
:10423000000000000000000000000000000000007E
:10424000000000000000000000000000000000006E
:1042500000000380000380000380000380000380CF
:104260000003800003800003800003800001000041
:104270000100000000000000000380000380000037
:10428000000000000000000000000000000000002E
:10429000000000000000000000000000000E7000A0
:1042A0000E70000E700004200004200004200004A2
:1042B00020000000000000000000000000000000DE
:1042C00000000000000000000000000000000000EE
:1042D00000000000000000000000000000000000DE
:1042E00000000660000660000660000660000660D0
:1042F000003FF8003FF8000660000CC0003FF800E7
:104300003FF8000CC0000CC0000CC0000CC0000C3A
:10431000C0000000000000000000000000000000DD
:104320000000000000000001800001800007B000D4
:104330000FF0001870001870001C00000F800007BC
:10434000E00000F0001830001C30001C70001FE07E
:10435000001BC0000180000180000180000180007E
:10436000000000000000000000000000000000004D
:1043700000000780000FC0001CE0001860001860FB
:10438000001CE0000FF80007E0001FF000073800F5
:1043900006180006180007380003F00001E00000CE
:1043A000000000000000000000000000000000000D
:1043B00000000000000000000000000000000000FD
:1043C00003F00007F0000C60000C00000C00000679
:1043D00000000700000F9C001DFC0018F000187082
:1043E000000FFC0007DC00000000000000000000DF
:1043F00000000000000000000000000000000000BD
:104400000000000000038000038000038000010022
:104410000001000001000001000000000000000099
:10442000000000000000000000000000000000008C
:10443000000000000000000000000000000000007C
:10444000000000000000000000000018000038001C
:1044500000700000F00000E00000E00001C000017A
:10446000C00001C00001C00001C00001C00000E0A8
:104470000000E0000070000070000038000018002C
:10448000000000000000000000000000000000002C
:1044900000001800001C00000E00000E00000700C5
:1044A00000070000038000038000038000038000F9
:1044B0000380000380000700000700000F00000ECB
:1044C00000001C00001800000000000000000000B8
:1044D00000000000000000000000018000018000DA
:1044E0000180001DB8001FF80007E00003C00003B2
:1044F000C000066000066000000000000000000030
:1045000000000000000000000000000000000000AB
:10451000000000000000000000000000000000009B
:104520000000000000000000018000018000018008
:10453000000180000180003FFC003FFC0001800082
:104540000180000180000180000180000000000067
:10455000000000000000000000000000000000005B
:10456000000000000000000000000000000000004B
:10457000000000000000000000000000000000003B
:10458000000000000000000000000000000000E04B
:104590000000C00001C00001800001800003000095
:1045A0000300000000000000000000000000000008
:1045B00000000000000000000000000000000000FB
:1045C000000000000000001FF8001FF800000000BD
:1045D00000000000000000000000000000000000DB
:1045E00000000000000000000000000000000000CB
:1045F00000000000000000000000000000000000BB
:1046000000000000000000000000000000000000AA
:10461000000000000000000000000000000003C0D7
:104620000003C00003C00000000000000000000004
:104630000000000000000000000000000018000062
:1046400018000038000030000070000060000060BA
:104650000000C00000C000018000018000030000D5
:104660000300000600000600000E00000C00001C05
:10467000000018000018000000000000000000000A
:104680000000000000000000000003C00007E00080
:104690000C30000C300018180018180018180018FA
:1046A00018001818001818001818000C30000C30EA
:1046B0000007E00003C00000000000000000000050
:1046C00000000000000000000000000000000000EA
:1046D00000000080000780001F80001D8000018016
:1046E0000001800001800001800001800001800045
:1046F0000180000180000180001FF8001FF8000009
:1047000000000000000000000000000000000000A9
:104710000000000000000000000007C0001FF000C3
:104720003830003018003018000018000030000049
:10473000600001C0000380000600000C00001800AB
:10474000003FF8003FF800000000000000000000FB
:104750000000000000000000000000000000000059
:10476000000003C0000FE0000C70000030000030BB
:104770000000600003C00003E000007000001800AB
:104780000018000018001838001FF0000FC00000CB
:104790000000000000000000000000000000000019
:1047A0000000000000000000000000E00001E00048
:1047B00001E0000360000660000660000C60000C71
:1047C00060001860003060003FF8003FF8000060B3
:1047D0000003F80003F800000000000000000000E3
:1047E00000000000000000000000000000000000C9
:1047F00000001FF0001FF000180000180000180053
:10480000001BC0001FF0001C300000180000180042
:104810000018000018003030003FF0000FC000000A
:104820000000000000000000000000000000000088
:104830000000000000000000000000F80003F80085
:104840000700000E00000C00001800001BC0001F35
:10485000F0001C30001818001818001818000C3848
:10486000000FF00003E00000000000000000000066
:104870000000000000000000000000000000000038
:1048800000001FF8001FF80018180018380000304A
:104890000000300000700000600000600000E000D8
:1048A00000C00000C00001C00001800001800000C5
:1048B00000000000000000000000000000000000F8
:1048C0000000000000000000000007E0000FF00002
:1048D0001C38001818001818000C300007E00007FA
:1048E000E0000C30001818001818001818001C38C8
:1048F000000FF00007E000000000000000000000D2
:1049000000000000000000000000000000000000A7
:10491000000007C0000FF0001C3000181800181825
:10492000001818000C38000FF80003D80000180019
:1049300000300000700000E0001FC0001F000000F9
:104940000000000000000000000000000000000067
:104950000000000000000000000000000000000057
:1049600000000000000003C00003C00003C00000FE
:10497000000000000000000000000000000003C074
:104980000003C00003C000000000000000000000A1
:104990000000000000000000000000000000000017
:1049A000000000000000000000000000000000F017
:1049B0000000F00000F00000000000000000000017
:1049C00000000000E00001C0000180000180000341
:1049D00000000200000000000000000000000000D5
:1049E00000000000000000000000000000000000C7
:1049F000001C00003C0000F00003C0000F00003C61
:104A00000000F000003C00000F000003C00000F0B8
:104A100000003C00001C000000000000000000003E
:104A20000000000000000000000000000000000086
:104A30000000000000000000000000000000000076
:104A4000007FFC007FFC000000000000007FFC00F5
:104A50007FFC0000000000000000000000000000DB
:104A60000000000000000000000000000000000046
:104A70000000000000000000000000000000000036
:104A80007000007800001E000007800001E00000B8
:104A90007800001E0000780001E0000780001E0082
:104AA000007800007000000000000000000000001E
:104AB00000000000000000000000000000000000F6
:104AC000000000000007C0000FE000187000183060
:104AD0000018300000700000E00003C000038000F8
:104AE00003000000000000000007000007000000B5
:104AF00000000000000000000000000000000000B6
:104B00000000000000000000000003E00007F000CB
:104B10000E38000C180018780018F80019D8001981
:104B2000980019980019980018F8001878001800D3
:104B3000000C00000E180007F80003E00000000061
:104B40000000000000000000000000000000000065
:104B500000000000001F80001FC00001C0000360B3
:104B6000000360000630000630000C30000FF80033
:104B70001FF800180C00300C00FC7F00FC7F0000C8
:104B80000000000000000000000000000000000025
:104B9000000000000000000000000000007FE000B6
:104BA0007FF0001838001818001818001838001F77
:104BB000F0001FF800181C00180C00180C00180C4E
:104BC000007FF8007FF000000000000000000000FF
:104BD00000000000000000000000000000000000D5
:104BE000000000000003EC000FFC001C1C00180C6F
:104BF00000300C00300000300000300000300000B9
:104C0000300000180C001C1C000FF80003F000001E
:104C10000000000000000000000000000000000094
:104C2000000000000000000000000000007FC00045
:104C30007FF000183800181800180C00180C001825
:104C40000C00180C00180C00180C0018180018386C
:104C5000007FF0007FE00000000000000000000086
:104C60000000000000000000000000000000000044
:104C700000000000007FF8007FF8001818001818E6
:104C8000001998001980001F80001F800019800003
:104C90001998001818001818007FF8007FF8000015
:104CA0000000000000000000000000000000000004
:104CB000000000000000000000000000003FFC00B9
:104CC0003FFC000C0C000C0C000CCC000CC0000FC6
:104CD000C0000FC0000CC0000CC0000C00000C0095
:104CE000003FC0003FC000000000000000000000C6
:104CF00000000000000000000000000000000000B4
:104D0000000000000003EC000FFC001C1C00180C4D
:104D100000300C0030000030000030FE0030FE009B
:104D2000300C00380C001C1C000FFC0003F00000CD
:104D30000000000000000000000000000000000073
:104D4000000000000000000000000000007E7E0067
:104D50007E7E001818001818001818001818001F78
:104D6000F8001FF800181800181800181800181874
:104D7000007E7E007E7E000000000000000000003B
:104D80000000000000000000000000000000000023
:104D900000000000001FF8001FF8000180000180E3
:104DA000000180000180000180000180000180007E
:104DB0000180000180000180001FF8001FF8000042
:104DC00000000000000000000000000000000000E3
:104DD0000000000000000000000000000007FE00CE
:104DE00007FE0000300000300000300000300000FE
:104DF0003000303000303000303000303000306073
:104E0000003FE0000F8000000000000000000000F4
:104E10000000000000000000000000000000000092
:104E200000000000007F3E007F3E00183000186048
:104E30000018C0001980001B80001FC0001CE0008B
:104E40001870001830001838007F1F007F1F000006
:104E50000000000000000000000000000000000052
:104E6000000000000000000000000000007F800043
:104E70007F80000C00000C00000C00000C00000CF7
:104E800000000C00000C0C000C0C000C0C000C0CB6
:104E9000007FFC007FFC000000000000000000001C
:104EA0000000000000000000000000000000000002
:104EB0000000000000F00F00F81F00381C003C3C10
:104EC000003C3C00366C00366C0033CC0033CC0028
:104ED000318C00300C00300C00FE7F00FE7F0000A3
:104EE00000000000000000000000000000000000C2
:104EF0000000000000000000000000000078FE003C
:104F000078FE001C18001E18001F18001B18001B3C
:104F1000980019D80018D80018F800187800183828
:104F2000007F18007F180000000000000000000053
:104F30000000000000000000000000000000000071
:104F4000000000000003C0000FF0001C380018181B
:104F500000381C00300C00300C00300C00300C000D
:104F6000381C001818001C38000FF00003C00000A7
:104F70000000000000000000000000000000000031
:104F8000000000000000000000000000003FF000F2
:104F90003FF8000C1C000C0C000C0C000C0C000C5E
:104FA00018000FF8000FE0000C00000C00000C00CF
:104FB000003FC0003FC000000000000000000000F3
:104FC00000000000000000000000000000000000E1
:104FD000000000000003C0000FF0001C380018188B
:104FE00000381C00300C00300C00300C00300C007D
:104FF000381C001818001C38000FF00007C000070C
:10500000CC000FFC000C3800000000000000000085
:10501000000000000000000000000000007FE00031
:105020007FF0001838001818001818001838001FF2
:10503000F0001FC00018E000187000183000183889
:10504000007F1E007F0E0000000000000000000036
:105050000000000000000000000000000000000050
:10506000000000000007D8000FF8001C38001818D6
:10507000001818001E00000FC00003F000007800A8
:105080001818001818001C38001FF0001BE0000062
:105090000000000000000000000000000000000010
:1050A000000000000000000000000000003FFC00C5
:1050B0003FFC00318C00318C00318C00318C0001C0
:1050C00080000180000180000180000180000180DB
:1050D000000FF0000FF000000000000000000000D2
:1050E00000000000000000000000000000000000C0
:1050F00000000000007E7E007E7E00181800181858
:1051000000181800181800181800181800181800AF
:105110001818001818000C30000FF00003C0000031
:10512000000000000000000000000000000000007F
:10513000000000000000000000000000007F7F0071
:105140007F7F00180C000C18000C18000C180006CB
:10515000300006300003600003600003600001C0FF
:105160000001C000008000000000000000000000FE
:10517000000000000000000000000000000000002F
:105180000000000000FE3F80FE3F80300600300639
:105190000030860019CC0019CC001B6C001B6C0081
:1051A0001E7C000E38000E38000C18000C18000091
:1051B00000000000000000000000000000000000EF
:1051C000000000000000000000000000007E7E00E3
:1051D0007E7E001818000C300006600003C000013D
:1051E000800001800003C0000660000C3000181829
:1051F000007E7E007E7E00000000000000000000B7
:10520000000000000000000000000000000000009E
:1052100000000000007C7E007C7E001818000C302E
:105220000006600006600003C000018000018000ED
:105230000180000180000180000FF0000FF00000ED
:10524000000000000000000000000000000000005E
:10525000000000000000000000000000001FF80037
:105260001FF80018180018300018600018C000015E
:1052700080000300000618000C18001818003018F1
:10528000003FF8003FF800000000000000000000B0
:10529000000000000000000000000000000000000E
:1052A000000001F00001F000018000018000018099
:1052B0000001800001800001800001800001800069
:1052C0000180000180000180000180000180000158
:1052D000800001F00001F00000000000000000006C
:1052E000000000001800001800001C00000C000066
:1052F0000E0000060000060000030000030000018D
:10530000800001800000C00000C00000600000605C
:105310000000700000300000380000180000180085
:10532000000000000000000000000000000000007D
:1053300000000F80000F80000180000180000180CC
:1053400000018000018000018000018000018000D8
:1053500001800001800001800001800001800001C7
:1053600080000F80000F800000000000000000009F
:105370000000000000000000800001C00003E00009
:105380000770000630000C1800180C001004000014
:10539000000000000000000000000000000000000D
:1053A00000000000000000000000000000000000FD
:1053B00000000000000000000000000000000000ED
:1053C00000000000000000000000000000000000DD
:1053D00000000000000000000000000000000000CD
:1053E00000000000000000000000000000000000BD
:1053F0000000000000000000000000000000FFFFAF
:1054000000FFFF0000000003000003800000E00038
:10541000006000000000000000000000000000002C
:10542000000000000000000000000000000000007C
:10543000000000000000000000000000000000006C
:10544000000000000000000000000000000000005C
:1054500000000000000000000000000000000FC07D
:10546000001FE00000300000300007F0001FF000D7
:105470003830003030003070001FFC000FBC0000DE
:10548000000000000000000000000000000000001C
:10549000000000000000000000007800007800001C
:1054A0001800001800001BE0001FF8001C1800186E
:1054B0000C00180C00180C00180C00180C001C181C
:1054C000007FF8007BE0000000000000000000000A
:1054D00000000000000000000000000000000000CC
:1054E000000000000000000000000000000003ECCD
:1054F000000FFC001C1C00380C00300C00300000B9
:10550000300000380C001C1C000FF80003F00000F5
:10551000000000000000000000000000000000008B
:10552000000000000000000000000078000078008B
:1055300000180000180007D8001FF80018380030C5
:1055400018003018003018003018003018001838D3
:10555000001FFE0007DE0000000000000000000049
:10556000000000000000000000000000000000003B
:10557000000000000000000000000000000007E044
:10558000001FF800181800300C003FFC003FFC0022
:10559000300000300000180C001FFC0007F0000075
:1055A00000000000000000000000000000000000FB
:1055B0000000000000000000000001FC0003FC00EF
:1055C0000600000600003FF8003FF8000600000655
:1055D00000000600000600000600000600000600AD
:1055E000003FF0003FF0000000000000000000005D
:1055F00000000000000000000000000000000000AB
:10560000000000000000000000000000000007DEB5
:10561000001FFE0018380030180030180030180045
:105620003018003018001838001FF80007D80000A4
:1056300018000018000038000FF0000FC000000034
:10564000000000000000000000007800007800006A
:105650001800001800001BE0001FF0001C380018A4
:105660001800181800181800181800181800181832
:10567000007E7E007E7E0000000000000000000032
:10568000000000000000000000000000000000001A
:1056900000000180000180000000000000001F8069
:1056A000001F800001800001800001800001800057
:1056B0000180000180000180003FFC003FFC0000F1
:1056C00000000000000000000000000000000000DA
:1056D0000000000000000000000000C00000C0004A
:1056E0000000000000001FF0001FF000003000006C
:1056F000300000300000300000300000300000308A
:105700000000300000300000300000300000700069
:105710001FE0001F800000000000000000000000EB
:1057200000003C00003C00000C00000C00000CF8E5
:10573000000CF8000CC0000D80000F80000F00006E
:105740000F80000DC0000CE0003C7C003C7C0000A1
:105750000000000000000000000000000000000049
:10576000000000000000000000001F80001F8000FB
:1057700001800001800001800001800001800001A3
:105780008000018000018000018000018000018014
:10579000003FFC003FFC0000000000000000000093
:1057A00000000000000000000000000000000000F9
:1057B0000000000000000000000000000000F7787A
:1057C00000FFFC0039CC00318C00318C00318C00A2
:1057D000318C00318C00318C00FDEF00FDEF0000BA
:1057E00000000000000000000000000000000000B9
:1057F00000000000000000000000000000000000A9
:105800000000000000007BE0007FF0001C38001862
:105810001800181800181800181800181800181880
:10582000007E7E007E7E0000000000000000000080
:105830000000000000000000000000000000000068
:10584000000000000000000000000000000003C095
:10585000000FF0001C3800381C00300C00300C0029
:10586000300C00381C001C38000FF00003C0000092
:105870000000000000000000000000000000000028
:105880000000000000000000000000000000000018
:105890000000000000007BE0007FF8001C180018EA
:1058A0000C00180C00180C00180C00180C001C1828
:1058B000001FF8001BE0001800001800001800008E
:1058C0007F00007F000000000000000000000000DA
:1058D000000000000000000000000000000007DEE3
:1058E000001FFE0018380030180030180030180073
:1058F0003018003018001838001FF80007D80000D2
:10590000180000180000180000FE0000FE00000053
:105910000000000000000000000000000000000087
:105920000000000000003E78003EFC0007CC0007AD
:105930000000060000060000060000060000060049
:10594000003FF0003FF000000000000000000000F9
:105950000000000000000000000000000000000047
:10596000000000000000000000000000000007F838
:10597000000FF8001818001818001F80000FF00022
:1059800000F8001818001838001FF0001FE0000091
:105990000000000000000000000000000000000007
:1059A000000000000000000000000C00000C0000DF
:1059B0000C00000C00003FF0003FF0000C00000C59
:1059C00000000C00000C00000C00000C00000C1C7F
:1059D0000007FC0003F000000000000000000000D1
:1059E00000000000000000000000000000000000B7
:1059F00000000000000000000000000000007878B7
:105A000000787800181800181800181800181800E6
:105A10001818001818001838000FFE0007DE0000E4
:105A20000000000000000000000000000000000076
:105A30000000000000000000000000000000000066
:105A40000000000000007C3E007C3E00181800189A
:105A500018000C30000C300006600006600007E003
:105A60000003C00003C000000000000000000000B0
:105A70000000000000000000000000000000000026
:105A80000000000000000000000000000000783C62
:105A900000783C003118003398003398001AB000A9
:105AA0001EF0001EF0001C60000C60000C60000086
:105AB00000000000000000000000000000000000E6
:105AC00000000000000000000000000000000000D6
:105AD0000000000000003E7C003E7C000C30000610
